:060000000A128A11122809
:10000800FE00030EF1000408F2000A08F300831250
:1000180003137F08F4000A128A11052C0A128A11A8
:100028001528F701F801E5018313A0308400B430E6
:100038000A128A11512483010A128A118F2B831202
:1000480003133F08C5004008C6004108C700031055
:10005800460D470DC8004808C9004908031D3B283C
:100068000030BF000030C0000030C1000800420866
:10007800C5004308C6004408C7000310460D470DD5
:10008800C8004808CE004E08031D51280030BF00A4
:100098000030C0000030C10008004E087B3EC5009B
:1000A8004508C9073F08C5004008C6004108C70001
:1000B80010300310C70CC60CC50CFF3E031D5D288D
:1000C8004508C8004808CE004208C5004308C600D5
:1000D8004408C70010300310C70CC60CC50CFF3EFF
:1000E800031D6F284508C8004808CE068030C500A3
:1000F8004508CE05C017C317FF30C205FF30C3053A
:100108000030C4050030CA000030CB000030CC00FD
:100118000730C5004508CD003F1CA0284208CA0783
:10012800430803110318430A031DCB0744080311AE
:100138000318440A031DCC0701300310C10CC00C7E
:10014800BF0CFF3E031DA12801300310C20DC30DD3
:10015800C40DFF3E031DA9280130CD02031D9028C0
:100168000930C5004508CD003F1CC8284208CA0709
:10017800430803110318430A031DCB07440803115E
:100188000318440A031DCC0701300310C10CC00C2E
:10019800BF0CFF3E031DC92801300310CC0CCB0C4B
:1001A800CA0CFF3E031DD1280130CD02031DB8281B
:1001B8004A08A0004B08A1004C08A2004908C50045
:1001C8004508A3004E08C6004608A4000A128A1172
:1001D8003C22831203132008BF002108C000220814
:1001E800C1000800831203133208B5003308B600B3
:1001F8003408B7000310360D370DB8003808BD00B5
:100208003D08031D0E290030AF000030B00000305B
:10021800B10008002F08B5003008B6003108B70053
:100228000310360D370DB8003808BE003E08031D10
:1002380024290030AF000030B0000030B1000800C1
:100248000030BA000030BB000030BC0089303E07E7
:10025800B5003508BD023208B5003308B6003408C9
:10026800B70010300310B70CB60CB50CFF3E031DD9
:1002780036293508B8003808BE002F08B500300800
:10028800B6003108B70010300310B70CB60CB50C27
:10029800FF3E031D48293508B8003808BE068030DF
:1002A800B5003508BE05B317FF30B205FF30B305FA
:1002B8000030B405B017FF30AF05FF30B00500308F
:1002C800B1051830B5003508B90001300310BA0D72
:1002D800BB0DBC0DFF3E031D6A2931083402031D06
:1002E8007B2930083302031D7B292F083202031CA7
:1002F80088292F08B2023008031C300FB3023108D6
:10030800031C310AB4023A1401300310B20DB30DC4
:10031800B40DFF3E031D89290130B902031D692967
:100328003A08A0003B08A1003C08A2003D08B5001F
:100338003508A3003E08B6003608A4000A128A1140
:100348003C22831203132008AF002108B0002208C2
:10035800B1000800831203134F08D3005008D400DB
:100368005108D5000310540D550DD6005608DC0071
:100378005C08031DC8290030D2000030D1000030CD
:10038800D0000030CF0008004F08D3005008D40038
:100398005108D50017300310D50CD40CD30CFF3EF0
:1003A800031DCF295308D6005608D700D017FF30B1
:1003B800CF05FF30D0050030D1054F08D8005008D0
:1003C800D9005108DA00DB018E30DC02DC1F0A2A72
:1003D8005C08803A8F3E0318FA290030D2000030BA
:1003E800D1000030D0000030CF00080001300310E9
:1003F800DB0CDA0CD90CD80CFF3E031DFB290130AD
:10040800D3005308DC070319252AFA2918305C029F
:10041800031C222A0030D2000030D1000030D00066
:100428000030CF0008000130D3000310D80DD90DDB
:10043800DA0DDB0DD30B192A0130DC025C08031D31
:10044800172A57080319332AD809D909DA09DB0901
:10045800D80A0319D90A0319DA0A0319DB0A5B084F
:10046800D2005A08D1005908D0005808CF00080017
:100478008312031323080319462A2208210420049F
:10048800031D592A0030A0000030A1000030A2004E
:1004980008000130A5002508A30701300310A20CAD
:1004A800A10CA00CFF3E031D522AFE3022050319A1
:1004B800742A4D2A0130A5002508A3070130A0079A
:1004C800003003180130A107003003180130A207DB
:1004D80001300310A20CA10CA00CFF3E031D6D2AD5
:1004E800FF3022050319832A5E2A0130A302013056
:1004F8000310A00DA10DA20DFF3E031D7C2AA11B18
:10050800892A023023020318792A2318912AFF30F6
:10051800A0057F30A105FF30A2050310A30C230816
:10052800A500A601A70110300310A50DA60DA70D63
:10053800FF3E031D982A2508A0042608A1042708C1
:10054800A204240803190800A21708000030831227
:100558000313AB000030AA000030A9000030A80047
:1005680023082204210420040319012BAC01AC0A3E
:10057800A31BCC2A0130F5000310A00DA10DA20D7C
:10058800A30DF50BC02A0130F5007508AC07BC2A8D
:100598000130F5000310A80DA90DAA0DAB0DF50B40
:1005A800CE2A23082702031DE32A22082602031D58
:1005B800E32A21082502031DE32A20082402031C3C
:1005C800F42A2008A4022108031C210FA5022208EE
:1005D800031C220FA6022308031C230FA7022814BA
:1005E80001300310A30CA20CA10CA00CFF3E031DAC
:1005F800F52A0130AC02031DCC2A2B08A3002A08D7
:10060800A2002908A1002808A0000800F600760822
:100618000A128A11E7230A128A118312031328087F
:10062800B2002908B3002A08B4000030AF00C8306F
:10063800B0004230B1000A128A11F6200A128A115B
:10064800831203132F08C2003008C3003108C40006
:10065800C030BF007F30C0004430C1000A128A1188
:1006680023200A128A11831203133F08CF0040087F
:10067800D0004108D1000A128A11AE210A128A114B
:10068800831203135008DE004F08DD000A128A1196
:10069800C3230800831203132D08B1002E08B200EB
:1006A8002F08B3003008B40002300310B10DB20DAA
:1006B800B30DB40DFF3E031D592B02300310B10DCD
:1006C800B20DB30DB40DFF3E031D622B3408A30019
:1006D8003308A2003208A1003108A0000030A700AA
:1006E8003D30A6000930A5000030A4000A128A1186
:1006F800AA22831203132008FF3E831603139200D5
:10070800831203133008E4002F08E3002E08E200E8
:100718002D08E10008000A128A1121240A128A1100
:100728008312031388010A128A1136240A128A11C5
:10073800003083120313B0000030AF000330AE0066
:10074800E830AD000A128A114E230A128A110030CD
:1007580083120313DD00DE000A128A11C3230A1272
:100768008A110A128A1146240A128A118312031363
:1007780065080A128A110A230A128A11BA2B043050
:10078800831203135E02003003195D02031CD02B91
:10079800FF30DD000330DE009D125D1CD72B831275
:1007A80003131D16DA2B831203131D125E08E000D3
:1007B8005D08DF000310E00CDF0C0310E00CDF0C19
:1007C8005F089B000800F500750883120313AB004F
:1007D800AC01AD012B08A0002C08A1002D08A20037
:1007E8008E30AE002E08A300A4010A128A113C2202
:1007F800831203132008A8002108A9002208AA00D0
:1008080008008C1D122C0A128A1159240A128A1106
:10081800F000700883120313E5008C110D180D10F9
:100828000C1B0C137408FF0073088A0072088400FC
:10083800710E8300FE0E7E0E090083160313061642
:1008480001309100FF30850088011F088F3930384A
:100858009F009F30831203139F05E3309F059F1766
:100868001F140800831603138717071720309300F7
:1008780036308312031394008B170B178316031358
:100888008C150800831203139D151D151214921060
:100898001215831603138710080064008001840A68
:1008A8000406031900340406522C831203138C1D0A
:0608B8008C11130808007A
:02400E00F2FFBF
:00000001FF
