:060000000A128A11122809
:10000800FE00030E83120313C6000408C7000A0883
:10001800C8007F08C9000A128A11742B0A128A11B3
:10002800152883132030840039300A128A110C24D1
:100038000A128A110A128A112D24D30083010A1286
:040048008A11852A6A
:100200000029FF0001308A007F08820706290A12B0
:100210008A1186290A128A11DD2A831203138C1D82
:10022000080083160313941914192B29941E141C07
:100230002B2964000A128A1124240A128A110A1234
:100240008A1129240A128A1183120313141F080029
:1002500014138C110800941914195929941A141C98
:10026000592964000A128A1129240A128A110A12D1
:100270008A11AE230A128A110830831203132C0646
:10028000031D47290A128A11CD230A128A11093047
:10029000831203132C02031C52290A128A112424EC
:1002A0000A128A1183120313141F080014138C11ED
:1002B00008009419141D6D29941A6D290A128A11C7
:1002C000BF230A128A118312031388010A128A11AA
:1002D0009B23831203138C1108009419141D7A298F
:1002E000941A14187A290A128A119B238312031371
:1002F0008C110800941D0800141D08001418080033
:10030000141F08000A128A115A230800FF308312B2
:10031000031388004108063E840083130008083E4A
:10032000C200C20A4108053E84000008C300C4019F
:100330009C290310C30DC40DC20B99294308B900B1
:100340004408BA000030BA1BFF30BB00BC000A12E0
:100350008A1146220A128A11831203134108043EAD
:10036000840083130008083EC200C20A4108033E0D
:1003700084000008C300C401C0290310C30DC40DCC
:10038000C20BBD294308F0004408F1000A128A118B
:10039000B9220A128A11831203134108023E840013
:1003A00083130008083EC200C20A410A8400000804
:1003B000C300C401DE290310C30DC40DC20BDB2929
:1003C0004308F2004408F3000A128A1122230800AD
:1003D0000030FC000030FB000030FA000030F90073
:1003E000730872047104700403193D2AFD01FD0AAB
:1003F000F31B082A0130F8000310F00DF10DF20D87
:10040000F30DF80BFC290130F8007808FD07F829F6
:100410000130F8000310F90DFA0DFB0DFC0DF80B7F
:100420000A2A73087702031D1F2A72087602031D29
:100430001F2A71087502031D1F2A70087402031C0D
:10044000302A7008F4027108031C710FF50272085B
:10045000031C720FF6027308031C730FF702791462
:1004600001300310F30CF20CF10CF00CFF3E031DF5
:10047000312A0130FD02031D082A7C08F3007B08A5
:10048000F2007A08F1007908F000080083120313E3
:100490003908BD003A08BE003B08BF003C08C00058
:1004A00002300310BD0DBE0DBF0DC00DFF3E031D7C
:1004B000512A02300310BD0DBE0DBF0DC00DFF3E11
:1004C000031D5A2A4008F3003F08F2003E08F100DD
:1004D0003D08F0000030F7007A30F6001230F500E9
:1004E0000030F4000A128A11E8217008FF3E8316DA
:1004F00003139200831203133C08A3003B08A200DD
:100500003A08A1003908A0000800703083160313D0
:100510008F04643083120313CF000030D0000A121E
:100520008A1188230A128A11831203138801013069
:100530000A128A111C240A128A1104300A128A1122
:1005400014240A128A110A128A1140230A128A11EB
:100550000A128A11DB230A128A11E830831203136C
:10056000CC000330CD000A128A1100230A128A112E
:10057000B82A04307102003003197002031CC42A27
:10058000FF30F0000330F100831203139D12701C42
:10059000CD2A831203131D16D02A831203131D12B2
:1005A0007108F3007008F2000310F30CF20C031052
:1005B000F30CF20C72089B0008000530F100700883
:1005C00084007108831380004130F100700A8400B8
:1005D000710880004230F1007008023E840071080A
:1005E00080006130F1007008033E840071088000D3
:1005F0006230F1007008043E840071088000080039
:10060000831203134D08803ACE002908803A4E0227
:10061000031D0C2B28084C020318182B83120313FC
:100620004D08CB004C08CA000A128A11E8230800C2
:10063000831203134D08CB004C08CA000A128A111A
:10064000F12308007308803AF40083120313290889
:10065000803A7402031D2E2B280872020318382BCF
:100660007308F1007208F0000A128A11FA230800D8
:100670007308F1007208F0000A128A1103240800BE
:10068000831203138801831603138717071720307B
:1006900093003630831203139400831603139401DE
:1006A0008312031314138316031314108B170B17E1
:1006B0008C15080083120313880183160313871710
:1006C00007172030930036308312031394008316EB
:1006D00003139401831203131413831603131410CA
:1006E0008B170B178C1508008C1D7B2B0A128A1197
:1006F0000D210A128A11831203134908FF004808CA
:100700008A0047088400460E8300FE0E7E0E090014
:1007100083160313061601309100FF30850088010F
:100720001F088F3930389F009F30831203139F05B5
:100730009F171F14080083120313340803190800BD
:1007400094133408FF3E343E840083130008930062
:10075000941BA02B0130B40214160800F1000130E4
:10076000F000700883120313AC077108F0002C0826
:10077000FF3E2C3E84007008831380000800831223
:1007800003135208031908003430F2007208F00015
:1007900052080A128A11012108008312031351081A
:1007A000031908002C30C5004508C10051080A1281
:1007B0008A11012108004630831603139200053088
:1007C0008312031392001C3095001C309700080020
:1007D000831203134B08A7004A08A600AB01AB0A1B
:1007E0000800831203134B08A7004A08A600AB01B8
:1007F000AB0A0800710883120313A7007008A60053
:10080000AB01AB0A0800710883120313A70070083C
:10081000A600AB01AB0A080064008001840A04064C
:100820000319003404060D2C83120313CB004B086C
:10083000CA004A08D200080083120313CB004B08F9
:10084000CA004A08D100080083120313AC01AC0AA5
:0C08500008008312031313080800013491
:02400E00F2FFBF
:00000001FF
