:060000000A128A11122809
:10000800FE00030EF5000408F6000A08F700831244
:1000180003137F08F8000A128A111B2A0A128A1190
:100028001528F901FA01BC01BD01BE01BF01C001DB
:10003800C1010A128A110D23FC0083010A128A11D8
:020048000A2983
:100200000029FF0001308A007F08820706290A12B0
:100210008A11022B0A128A11AE220A128A1183163F
:100220000313880183120313880101300A128A1113
:10023000FA220A128A110A128A11C1220A128A119A
:10024000003083120313B1000030B0000330AF0060
:10025000E830AE000A128A11DA210A128A1100303F
:1002600083120313A000A1000A128A118A220A1223
:100270008A110A128A11EF220A128A11003083129F
:100280000313A100A2000A128A115C220A128A1129
:10029000831203132208BB002108BA000130A10019
:1002A0000030A2000A128A115C220A128A118312FB
:1002B00003132208B7002108B6000230A100003065
:1002C000A2000A128A115C220A128A1183120313F5
:1002D0002208B9002108B8003B08C1003A08C00054
:1002E0004108A1004008A0000A128A118A220A12BD
:1002F0008A113E29003083120313AC000030AB009A
:100300000030AA000030A9002308220421042004A0
:100310000319D129AD01AD0AA31B9C290130A80006
:100320000310A00DA10DA20DA30DA80B9029013063
:10033000A8002808AD078C290130A8000310A90DDA
:10034000AA0DAB0DAC0DA80B9E2923082702031D97
:10035000B32922082602031DB32921082502031D03
:10036000B32920082402031CC4292008A402210860
:10037000031C210FA5022208031C220FA60223083A
:10038000031C230FA702291401300310A30CA20C95
:10039000A10CA00CFF3E031DC5290130AD02031DB9
:1003A0009C292C08A3002B08A2002A08A1002908D8
:1003B000A0000800831203132E08B2002F08B30018
:1003C0003008B4003108B50002300310B20DB30D8F
:1003D000B40DB50DFF3E031DE52902300310B20D2B
:1003E000B30DB40DB50DFF3E031DEE293508A30076
:1003F0003408A2003308A1003208A0000030A70092
:100400003D30A6000930A5000030A4000A128A1170
:100410007A21831203132008FF3E831603139200F0
:10042000831203133108C5003008C4002F08C3002D
:100430002E08C20008008C1D512A8316031394193C
:100440001419282A941A282A83120313BC01332A68
:1004500094191419332A941E332A0130F4007408B5
:1004600083120313BC070A128A1109230A128A1184
:10047000F400831203133C083C3E84007408831389
:10048000800003303C06031D4A2A0A128A11E0222A
:100490000A128A110530831203133C020318BC01AF
:1004A0008C117808FF0077088A0076088400750EA2
:1004B0008300FE0E7E0E0900831203132108A300A1
:1004C000A30DA30D1F082306E33923069F000A127C
:1004D0008A11D122831203131E08A300A40123084A
:1004E000A400A3012308A5002408A6008316031373
:1004F0001E08831203132507A30026080318260AE3
:10050000A4002308A5002408A6002608A2002508A8
:10051000A1000800043083120313210200300319E4
:100520002002031C972AFF30A0000330A1009D1277
:10053000201C9E2A831203131D16A12A8312031363
:100540001D122108A3002008A2000310A30CA20C76
:100550000310A30CA20C22089B00080083160313AF
:10056000061601309100FF30850088011F088F3981
:1005700030389F009F30831203139F059F171F146D
:1005800008008316031387170717203093003630AF
:100590008312031394008B170B17831603138C1508
:1005A0000800F93083120313A0000000A00BD52A25
:1005B000D92A0000831203139F149F1C0800DD2A10
:1005C000831203133F08F3003E08F2003D08F100D8
:1005D0003C08F0007B080A128A11012108008312EE
:1005E00003139D151D151214921012158316031373
:1005F0008710080083120313A1002108A00020081F
:10060000FB000800710883120313C1007008C000CA
:0C061000080083120313130808000134D3
:02400E00F2FFBF
:00000001FF
