:060000000A128A11FA2F1A
:1007B800831203135708F1005608F000080083124B
:1007C80003139D151D151214921012158316031389
:1007D80087100800831603131E08F000F101700843
:1007E80083120313D6007108D7000800F930F0000F
:1007F8000000F00BFC2B002C0000831203139F1445
:100808009F1C0800042C7808F0007908F100F20118
:100818008E30FB007B08F300F4010A128A11F124E0
:100828007008F8007108F9007208FA0008008316C9
:100838000313061601309100FF30850088011F0858
:100848008F3930389F009F30831203139F05E330A0
:100858009F059F171F140800043071020030031908
:100868007002031C3B2CFF30F0000330F1008312B0
:1008780003139D12701C442C831203131D16472C5E
:10088800831203131D127108F3007008F20003109D
:10089800F30CF20C0310F30CF20C72089B00080026
:1008A800831203132008A4002108A5002208A6002B
:1008B8002308A70002300310A40DA50DA60DA70D4F
:1008C800FF3E031D5F2C02300310A40DA50DA60DDD
:1008D800A70DFF3E031D682C2708F3002608F20029
:1008E8002508F1002408F0000030F7003D30F6003C
:1008F8000930F5000030F4000A128A1193247008B8
:10090800FF3E831603139200831203132308D500B6
:100918002208D4002108D3002008D20008000030A3
:10092800FC000030FB000030FA000030F9007308CA
:100938007204710470040319E82CFD01FD0AF31B0D
:10094800B32C0130F8000310F00DF10DF20DF30D8A
:10095800F80BA72C0130F8007808FD07A32C01300C
:10096800F8000310F90DFA0DFB0DFC0DF80BB52C72
:1009780073087702031DCA2C72087602031DCA2C5D
:1009880071087502031DCA2C70087402031CDB2C45
:100998007008F4027108031C710FF5027208031C39
:1009A800720FF6027308031C730FF70279140130F3
:1009B8000310F30CF20CF10CF00CFF3E031DDC2CC1
:1009C8000130FD02031DB32C7C08F3007B08F20004
:1009D8007A08F1007908F000080073080319F92C67
:1009E800720871047004031D0C2D0030F0000030F3
:1009F800F1000030F20008000130F5007508F30737
:100A080001300310F20CF10CF00CFF3E031D052D14
:100A1800FE3072050319272D002D0130F5007508E9
:100A2800F3070130F007003003180130F1070030F8
:100A380003180130F20701300310F20CF10CF00C2E
:100A4800FF3E031D202DFF3072050319362D112D91
:100A58000130F30201300310F00DF10DF20DFF3EED
:100A6800031D2F2DF11B3C2D0230730203182C2D72
:100A78007318442DFF30F0057F30F105FF30F20583
:100A88000310F30C7308F500F601F701103003109A
:100A9800F50DF60DF70DFF3E031D4B2D7508F004FF
:100AA8007608F1047708F204740803190800F217AD
:100AB80008000A128A111B240A128A1183120313CE
:100AC80088010030A3000030A2000330A100E83004
:100AD800A0000A128A1154240A128A11C830F000A0
:100AE8000030F1000A128A1130240A128A110A12FF
:100AF8008A11E3230A128A110A128A11FA230A12A6
:100B08008A110A128A11EE230A128A110A128A110C
:100B1800DC230A128A11710883120313CF007008AC
:100B2800CE004F08F9004E08F8000A128A1107246F
:100B38000A128A11780883120313A3007908A40003
:100B48007A08A5000030A0007F30A1004330A20041
:100B58000A128A116F260A128A11831203132008B7
:100B6800B3002108B4002208B500C030B0007F30BF
:100B7800B1004430B2000A128A1127270A128A11DA
:100B8800831203133008C0003108C1003208C200C4
:100B98000A128A11E1250A128A11831203134108E5
:100BA800D1004008D0005108F1005008F0000A12A6
:100BB8008A1130240A128A11802D831203134008E7
:100BC800C4004108C5004208C6000310450D460D83
:100BD800C7004708CD004D08031DFB2D0030C3009A
:100BE8000030C2000030C1000030C00008004008DA
:100BF800C4004108C5004208C60017300310C60CDF
:100C0800C50CC40CFF3E031D022E4408C70047084C
:100C1800C800C117FF30C005FF30C1050030C2054C
:100C28004008C9004108CA004208CB00CC018E30F8
:100C3800CD02CD1F3D2E4D08803A8F3E03182D2E34
:100C48000030C3000030C2000030C1000030C000D6
:100C5800080001300310CC0CCB0CCA0CC90CFF3EA9
:100C6800031D2E2E0130C4004408CD070319582E49
:100C78002D2E18304D02031C552E0030C3000030B5
:100C8800C2000030C1000030C00008000130C400BC
:100C98000310C90DCA0DCB0DCC0DC40B4C2E013061
:100CA800CD024D08031D4A2E48080319662EC909AE
:100CB800CA09CB09CC09C90A0319CA0A0319CB0AFC
:100CC8000319CC0A4C08C3004B08C2004A08C100EB
:100CD8004908C0000800831203132308A60024084B
:100CE800A7002508A8000310270D280DA90029082A
:100CF800AE002E08031D872E0030A0000030A10092
:100D08000030A20008002008A6002108A700220839
:100D1800A8000310270D280DA9002908AF002F08E7
:100D2800031D9D2E0030A0000030A1000030A2005D
:100D380008000030AB000030AC000030AD00893056
:100D48002F07A6002608AE022308A6002408A7003D
:100D58002508A80010300310A80CA70CA60CFF3E0D
:100D6800031DAF2E2608A9002908AF002008A600F9
:100D78002108A7002208A80010300310A80CA70C0F
:100D8800A60CFF3E031DC12E2608A9002908AF06A0
:100D98008030A6002608AF05A417FF30A305FF3052
:100DA800A4050030A505A117FF30A005FF30A10557
:100DB8000030A2051830A6002608AA00013003104A
:100DC800AB0DAC0DAD0DFF3E031DE32E2208250231
:100DD800031DF42E21082402031DF42E20082302EB
:100DE800031C012F2008A3022108031C210FA402C1
:100DF8002208031C220AA5022B1401300310A30D9C
:100E0800A40DA50DFF3E031D022F0130AA02031DEC
:100E1800E22E2B08F0002C08F1002D08F2002E0815
:100E2800A6002608F3002F08A7002708F4000A12D6
:100E38008A11F124700883120313A0007108A1001D
:100E48007208A2000800831203133008B6003108A4
:100E5800B7003208B8000310370D380DB90039084B
:100E6800BA003A08031D3F2F0030B0000030B1002F
:100E78000030B20008003308B6003408B70035085F
:100E8800B8000310370D380DB9003908BF003F0806
:100E9800031D552F0030B0000030B1000030B20003
:100EA80008003F087B3EB6003608BA073008B6008F
:100EB8003108B7003208B80010300310B80CB70C6E
:100EC800B60CFF3E031D612F3608B9003908BF0074
:100ED8003308B6003408B7003508B80010300310DE
:100EE800B80CB70CB60CFF3E031D732F3608B900BB
:100EF8003908BF068030B6003608BF05B117B417E9
:100F0800FF30B305FF30B4050030B5050030BB0035
:100F18000030BC000030BD000730B6003608BE0007
:100F2800301CA42F3308BB07340803110318340AF4
:100F3800031DBC07350803110318350A031DBD0737
:100F480001300310B20CB10CB00CFF3E031DA52FED
:100F580001300310B30DB40DB50DFF3E031DAD2FC9
:100F68000130BE02031D942F0930B6003608BE00BA
:100F7800301CCC2F3308BB07340803110318340A7C
:100F8800031DBC07350803110318350A031DBD07E7
:100F980001300310B20CB10CB00CFF3E031DCD2F75
:100FA80001300310BD0CBC0CBB0CFF3E031DD52F3C
:100FB8000130BE02031DBC2F3B08F0003C08F100C5
:100FC8003D08F2003A08B6003608F3003F08B700BB
:100FD8003708F4000A128A11F124700883120313E7
:100FE800B0007108B1007208B2000800D601D7013C
:080FF80083010A128A115D2D2C
:02400E00F2FFBF
:00000001FF
