:060000000A128A11F62F1E
:100F600074088312031388000800831603131E08F5
:100F7000F600F7017608F4007708F5000800F9306C
:100F8000F6000000F60BC12FC52F000083120313DB
:100F90009F149F1C0800C92F8316031306160130E7
:100FA0009100FF30850088011F088F3930389F007D
:100FB0009F30831203139F05E3309F059F171F1473
:100FC00008000A128A11CC270A128A110A128A1101
:100FD000BF270A128A110A128A11B5270A128A112A
:100FE0000A128A11B0270A128A11E62FF001F101C4
:100FF000F201F301F401F50183010A128A11E12FD4
:02400E00F2FFBF
:00000001FF
